{
  "contractName": "CourseMarketplace",
  "abi": [
    {
      "inputs": [],
      "stateMutability": "nonpayable",
      "type": "constructor"
    },
    {
      "inputs": [],
      "name": "CourseHasOwner",
      "type": "error"
    },
    {
      "inputs": [],
      "name": "CourseIsNotCreated",
      "type": "error"
    },
    {
      "inputs": [],
      "name": "InvalidState",
      "type": "error"
    },
    {
      "inputs": [],
      "name": "OnlyOwner",
      "type": "error"
    },
    {
      "inputs": [],
      "name": "SenderIsNotCourseOwner",
      "type": "error"
    },
    {
      "inputs": [],
      "name": "isStopped",
      "outputs": [
        {
          "internalType": "bool",
          "name": "",
          "type": "bool"
        }
      ],
      "stateMutability": "view",
      "type": "function",
      "constant": true
    },
    {
      "stateMutability": "payable",
      "type": "receive",
      "payable": true
    },
    {
      "inputs": [
        {
          "internalType": "uint256",
          "name": "amount",
          "type": "uint256"
        }
      ],
      "name": "withdraw",
      "outputs": [],
      "stateMutability": "nonpayable",
      "type": "function"
    },
    {
      "inputs": [],
      "name": "emergencyWithdraw",
      "outputs": [],
      "stateMutability": "nonpayable",
      "type": "function"
    },
    {
      "inputs": [],
      "name": "selfDestruct",
      "outputs": [],
      "stateMutability": "nonpayable",
      "type": "function"
    },
    {
      "inputs": [],
      "name": "stopContract",
      "outputs": [],
      "stateMutability": "nonpayable",
      "type": "function"
    },
    {
      "inputs": [],
      "name": "resumeContract",
      "outputs": [],
      "stateMutability": "nonpayable",
      "type": "function"
    },
    {
      "inputs": [
        {
          "internalType": "bytes16",
          "name": "courseId",
          "type": "bytes16"
        },
        {
          "internalType": "bytes32",
          "name": "proof",
          "type": "bytes32"
        }
      ],
      "name": "purchaseCourse",
      "outputs": [],
      "stateMutability": "payable",
      "type": "function",
      "payable": true
    },
    {
      "inputs": [
        {
          "internalType": "bytes32",
          "name": "courseHash",
          "type": "bytes32"
        }
      ],
      "name": "repurchaseCourse",
      "outputs": [],
      "stateMutability": "payable",
      "type": "function",
      "payable": true
    },
    {
      "inputs": [
        {
          "internalType": "bytes32",
          "name": "courseHash",
          "type": "bytes32"
        }
      ],
      "name": "activateCourse",
      "outputs": [],
      "stateMutability": "nonpayable",
      "type": "function"
    },
    {
      "inputs": [
        {
          "internalType": "bytes32",
          "name": "courseHash",
          "type": "bytes32"
        }
      ],
      "name": "deactivateCourse",
      "outputs": [],
      "stateMutability": "nonpayable",
      "type": "function"
    },
    {
      "inputs": [
        {
          "internalType": "address",
          "name": "newOwner",
          "type": "address"
        }
      ],
      "name": "transferOwnership",
      "outputs": [],
      "stateMutability": "nonpayable",
      "type": "function"
    },
    {
      "inputs": [],
      "name": "getCourseCount",
      "outputs": [
        {
          "internalType": "uint256",
          "name": "",
          "type": "uint256"
        }
      ],
      "stateMutability": "view",
      "type": "function",
      "constant": true
    },
    {
      "inputs": [
        {
          "internalType": "uint256",
          "name": "index",
          "type": "uint256"
        }
      ],
      "name": "getCourseHashAtIndex",
      "outputs": [
        {
          "internalType": "bytes32",
          "name": "",
          "type": "bytes32"
        }
      ],
      "stateMutability": "view",
      "type": "function",
      "constant": true
    },
    {
      "inputs": [
        {
          "internalType": "bytes32",
          "name": "courseHash",
          "type": "bytes32"
        }
      ],
      "name": "getCourseByHash",
      "outputs": [
        {
          "components": [
            {
              "internalType": "uint256",
              "name": "id",
              "type": "uint256"
            },
            {
              "internalType": "uint256",
              "name": "price",
              "type": "uint256"
            },
            {
              "internalType": "bytes32",
              "name": "proof",
              "type": "bytes32"
            },
            {
              "internalType": "address",
              "name": "owner",
              "type": "address"
            },
            {
              "internalType": "enum CourseMarketplace.State",
              "name": "state",
              "type": "uint8"
            }
          ],
          "internalType": "struct CourseMarketplace.Course",
          "name": "",
          "type": "tuple"
        }
      ],
      "stateMutability": "view",
      "type": "function",
      "constant": true
    },
    {
      "inputs": [],
      "name": "getContractOwner",
      "outputs": [
        {
          "internalType": "address",
          "name": "",
          "type": "address"
        }
      ],
      "stateMutability": "view",
      "type": "function",
      "constant": true
    }
  ],
  "bytecode": "0x608060405260008060006101000a81548160ff02191690831515021790555034801561002a57600080fd5b5061003a3361003f60201b60201c565b610083565b80600460006101000a81548173ffffffffffffffffffffffffffffffffffffffff021916908373ffffffffffffffffffffffffffffffffffffffff16021790555050565b6118fb806100926000396000f3fe6080604052600436106100ec5760003560e01c80636d11290b1161008a578063c4bc5da511610059578063c4bc5da5146102b8578063d76821cb146102cf578063db2e21bc146102eb578063f2fde38b14610302576100f3565b80636d11290b14610210578063935d7e6d1461024d57806396cfda06146102765780639cb8a26a146102a1576100f3565b80633f683b6a116100c65780633f683b6a14610161578063442890d51461018c5780636136e1eb146101b757806362e4e6ac146101d3576100f3565b806312253a6c146100f85780632e1a7d4d1461010f5780633926257214610138576100f3565b366100f357005b600080fd5b34801561010457600080fd5b5061010d61032b565b005b34801561011b57600080fd5b50610136600480360381019061013191906113b7565b6103b3565b005b34801561014457600080fd5b5061015f600480360381019061015a919061138e565b6104f1565b005b34801561016d57600080fd5b50610176610649565b60405161018391906115b3565b60405180910390f35b34801561019857600080fd5b506101a161065a565b6040516101ae9190611598565b60405180910390f35b6101d160048036038101906101cc919061138e565b610684565b005b3480156101df57600080fd5b506101fa60048036038101906101f5919061138e565b610833565b6040516102079190611629565b60405180910390f35b34801561021c57600080fd5b50610237600480360381019061023291906113b7565b61095b565b60405161024491906115ce565b60405180910390f35b34801561025957600080fd5b50610274600480360381019061026f919061138e565b610978565b005b34801561028257600080fd5b5061028b610c2b565b6040516102989190611644565b60405180910390f35b3480156102ad57600080fd5b506102b6610c35565b005b3480156102c457600080fd5b506102cd610cf3565b005b6102e960048036038101906102e49190611352565b610d7b565b005b3480156102f757600080fd5b50610300610f68565b005b34801561030e57600080fd5b5061032960048036038101906103249190611329565b6110bc565b005b61033361065a565b73ffffffffffffffffffffffffffffffffffffffff163373ffffffffffffffffffffffffffffffffffffffff1614610397576040517f5fc483c500000000000000000000000000000000000000000000000000000000815260040160405180910390fd5b60016000806101000a81548160ff021916908315150217905550565b6103bb61065a565b73ffffffffffffffffffffffffffffffffffffffff163373ffffffffffffffffffffffffffffffffffffffff161461041f576040517f5fc483c500000000000000000000000000000000000000000000000000000000815260040160405180910390fd5b6000600460009054906101000a900473ffffffffffffffffffffffffffffffffffffffff1673ffffffffffffffffffffffffffffffffffffffff168260405161046790611583565b60006040518083038185875af1925050503d80600081146104a4576040519150601f19603f3d011682016040523d82523d6000602084013e6104a9565b606091505b50509050806104ed576040517f08c379a00000000000000000000000000000000000000000000000000000000081526004016104e490611609565b60405180910390fd5b5050565b6104f961065a565b73ffffffffffffffffffffffffffffffffffffffff163373ffffffffffffffffffffffffffffffffffffffff161461055d576040517f5fc483c500000000000000000000000000000000000000000000000000000000815260040160405180910390fd5b61056681611134565b61059c576040517f4db0c48300000000000000000000000000000000000000000000000000000000815260040160405180910390fd5b60006001600083815260200190815260200160002090506105bc82611134565b6105f2576040517fbaf3f0f700000000000000000000000000000000000000000000000000000000815260040160405180910390fd5b60018160030160146101000a81548160ff02191690836002811115610640577f4e487b7100000000000000000000000000000000000000000000000000000000600052602160045260246000fd5b02179055505050565b60008054906101000a900460ff1681565b6000600460009054906101000a900473ffffffffffffffffffffffffffffffffffffffff16905090565b61068d81611134565b6106c3576040517f4db0c48300000000000000000000000000000000000000000000000000000000815260040160405180910390fd5b6106cc816111a3565b610702576040517fcce31cc400000000000000000000000000000000000000000000000000000000815260040160405180910390fd5b6000600160008381526020019081526020016000209050600280811115610752577f4e487b7100000000000000000000000000000000000000000000000000000000600052602160045260246000fd5b8160030160149054906101000a900460ff16600281111561079c577f4e487b7100000000000000000000000000000000000000000000000000000000600052602160045260246000fd5b146107d3576040517fbaf3f0f700000000000000000000000000000000000000000000000000000000815260040160405180910390fd5b60008160030160146101000a81548160ff02191690836002811115610821577f4e487b7100000000000000000000000000000000000000000000000000000000600052602160045260246000fd5b02179055503481600101819055505050565b61083b611255565b600160008381526020019081526020016000206040518060a00160405290816000820154815260200160018201548152602001600282015481526020016003820160009054906101000a900473ffffffffffffffffffffffffffffffffffffffff1673ffffffffffffffffffffffffffffffffffffffff1673ffffffffffffffffffffffffffffffffffffffff1681526020016003820160149054906101000a900460ff166002811115610918577f4e487b7100000000000000000000000000000000000000000000000000000000600052602160045260246000fd5b6002811115610950577f4e487b7100000000000000000000000000000000000000000000000000000000600052602160045260246000fd5b815250509050919050565b600060026000838152602001908152602001600020549050919050565b61098061065a565b73ffffffffffffffffffffffffffffffffffffffff163373ffffffffffffffffffffffffffffffffffffffff16146109e4576040517f5fc483c500000000000000000000000000000000000000000000000000000000815260040160405180910390fd5b6109ed81611134565b610a23576040517f4db0c48300000000000000000000000000000000000000000000000000000000815260040160405180910390fd5b600060016000838152602001908152602001600020905060006002811115610a74577f4e487b7100000000000000000000000000000000000000000000000000000000600052602160045260246000fd5b8160030160149054906101000a900460ff166002811115610abe577f4e487b7100000000000000000000000000000000000000000000000000000000600052602160045260246000fd5b14610af5576040517fbaf3f0f700000000000000000000000000000000000000000000000000000000815260040160405180910390fd5b60008160030160009054906101000a900473ffffffffffffffffffffffffffffffffffffffff1673ffffffffffffffffffffffffffffffffffffffff168260010154604051610b4390611583565b60006040518083038185875af1925050503d8060008114610b80576040519150601f19603f3d011682016040523d82523d6000602084013e610b85565b606091505b5050905080610bc9576040517f08c379a0000000000000000000000000000000000000000000000000000000008152600401610bc0906115e9565b60405180910390fd5b60028260030160146101000a81548160ff02191690836002811115610c17577f4e487b7100000000000000000000000000000000000000000000000000000000600052602160045260246000fd5b021790555060008260010181905550505050565b6000600354905090565b60008054906101000a900460ff16610c4c57600080fd5b610c5461065a565b73ffffffffffffffffffffffffffffffffffffffff163373ffffffffffffffffffffffffffffffffffffffff1614610cb8576040517f5fc483c500000000000000000000000000000000000000000000000000000000815260040160405180910390fd5b600460009054906101000a900473ffffffffffffffffffffffffffffffffffffffff1673ffffffffffffffffffffffffffffffffffffffff16ff5b610cfb61065a565b73ffffffffffffffffffffffffffffffffffffffff163373ffffffffffffffffffffffffffffffffffffffff1614610d5f576040517f5fc483c500000000000000000000000000000000000000000000000000000000815260040160405180910390fd5b60008060006101000a81548160ff021916908315150217905550565b60008233604051602001610d90929190611557565b604051602081830303815290604052805190602001209050610db1816111a3565b15610de8576040517fb0fc2d9700000000000000000000000000000000000000000000000000000000815260040160405180910390fd5b600060036000815480929190610dfd9061171e565b9190505590508160026000838152602001908152602001600020819055506040518060a001604052808281526020013481526020018481526020013373ffffffffffffffffffffffffffffffffffffffff16815260200160006002811115610e8e577f4e487b7100000000000000000000000000000000000000000000000000000000600052602160045260246000fd5b8152506001600084815260200190815260200160002060008201518160000155602082015181600101556040820151816002015560608201518160030160006101000a81548173ffffffffffffffffffffffffffffffffffffffff021916908373ffffffffffffffffffffffffffffffffffffffff16021790555060808201518160030160146101000a81548160ff02191690836002811115610f5a577f4e487b7100000000000000000000000000000000000000000000000000000000600052602160045260246000fd5b021790555090505050505050565b60008054906101000a900460ff16610f7f57600080fd5b610f8761065a565b73ffffffffffffffffffffffffffffffffffffffff163373ffffffffffffffffffffffffffffffffffffffff1614610feb576040517f5fc483c500000000000000000000000000000000000000000000000000000000815260040160405180910390fd5b6000600460009054906101000a900473ffffffffffffffffffffffffffffffffffffffff1673ffffffffffffffffffffffffffffffffffffffff164760405161103390611583565b60006040518083038185875af1925050503d8060008114611070576040519150601f19603f3d011682016040523d82523d6000602084013e611075565b606091505b50509050806110b9576040517f08c379a00000000000000000000000000000000000000000000000000000000081526004016110b090611609565b60405180910390fd5b50565b6110c461065a565b73ffffffffffffffffffffffffffffffffffffffff163373ffffffffffffffffffffffffffffffffffffffff1614611128576040517f5fc483c500000000000000000000000000000000000000000000000000000000815260040160405180910390fd5b61113181611211565b50565b60008073ffffffffffffffffffffffffffffffffffffffff166001600084815260200190815260200160002060030160009054906101000a900473ffffffffffffffffffffffffffffffffffffffff1673ffffffffffffffffffffffffffffffffffffffff1614159050919050565b60003373ffffffffffffffffffffffffffffffffffffffff166001600084815260200190815260200160002060030160009054906101000a900473ffffffffffffffffffffffffffffffffffffffff1673ffffffffffffffffffffffffffffffffffffffff16149050919050565b80600460006101000a81548173ffffffffffffffffffffffffffffffffffffffff021916908373ffffffffffffffffffffffffffffffffffffffff16021790555050565b6040518060a00160405280600081526020016000815260200160008019168152602001600073ffffffffffffffffffffffffffffffffffffffff168152602001600060028111156112cf577f4e487b7100000000000000000000000000000000000000000000000000000000600052602160045260246000fd5b81525090565b6000813590506112e481611869565b92915050565b6000813590506112f981611880565b92915050565b60008135905061130e81611897565b92915050565b600081359050611323816118ae565b92915050565b60006020828403121561133b57600080fd5b6000611349848285016112d5565b91505092915050565b6000806040838503121561136557600080fd5b6000611373858286016112ea565b9250506020611384858286016112ff565b9150509250929050565b6000602082840312156113a057600080fd5b60006113ae848285016112ff565b91505092915050565b6000602082840312156113c957600080fd5b60006113d784828501611314565b91505092915050565b6113e98161167b565b82525050565b6113f88161167b565b82525050565b61140f61140a8261167b565b611767565b82525050565b61141e8161168d565b82525050565b61143561143082611699565b611779565b82525050565b611444816116c5565b82525050565b611453816116c5565b82525050565b6114628161170c565b82525050565b600061147560108361166a565b915061148082611800565b602082019050919050565b600061149860008361165f565b91506114a382611829565b600082019050919050565b60006114bb600e8361166a565b91506114c68261182c565b602082019050919050565b60a0820160008201516114e76000850182611539565b5060208201516114fa6020850182611539565b50604082015161150d604085018261143b565b50606082015161152060608501826113e0565b5060808201516115336080850182611459565b50505050565b61154281611702565b82525050565b61155181611702565b82525050565b60006115638285611424565b60108201915061157382846113fe565b6014820191508190509392505050565b600061158e8261148b565b9150819050919050565b60006020820190506115ad60008301846113ef565b92915050565b60006020820190506115c86000830184611415565b92915050565b60006020820190506115e3600083018461144a565b92915050565b6000602082019050818103600083015261160281611468565b9050919050565b60006020820190508181036000830152611622816114ae565b9050919050565b600060a08201905061163e60008301846114d1565b92915050565b60006020820190506116596000830184611548565b92915050565b600081905092915050565b600082825260208201905092915050565b6000611686826116e2565b9050919050565b60008115159050919050565b60007fffffffffffffffffffffffffffffffff0000000000000000000000000000000082169050919050565b6000819050919050565b60008190506116dd82611855565b919050565b600073ffffffffffffffffffffffffffffffffffffffff82169050919050565b6000819050919050565b6000611717826116cf565b9050919050565b600061172982611702565b91507fffffffffffffffffffffffffffffffffffffffffffffffffffffffffffffffff82141561175c5761175b611795565b5b600182019050919050565b600061177282611783565b9050919050565b6000819050919050565b600061178e826117f3565b9050919050565b7f4e487b7100000000000000000000000000000000000000000000000000000000600052601160045260246000fd5b7f4e487b7100000000000000000000000000000000000000000000000000000000600052602160045260246000fd5b60008160601b9050919050565b7f5472616e73666572206661696c65642100000000000000000000000000000000600082015250565b50565b7f5472616e73666572206661696c64000000000000000000000000000000000000600082015250565b60038110611866576118656117c4565b5b50565b6118728161167b565b811461187d57600080fd5b50565b61188981611699565b811461189457600080fd5b50565b6118a0816116c5565b81146118ab57600080fd5b50565b6118b781611702565b81146118c257600080fd5b5056fea264697066735822122024db74cd9172488f5891c4850f8cc6b77fc1f75b20c47ec0ebc1d332c83ccde964736f6c63430008040033",
  "immutableReferences": {},
  "source": "// SPDX-License-Identifier: MIT\r\npragma solidity >=0.4.22 <0.9.0;\r\n\r\ncontract CourseMarketplace {\r\n\r\n  enum State {\r\n    Purchased,\r\n    Activated,\r\n    Deactivated\r\n  }\r\n\r\n  struct Course {\r\n    uint id; // 32\r\n    uint price; // 32\r\n    bytes32 proof; // 32\r\n    address owner; // 20\r\n    State state; // 1\r\n  }\r\n\r\n  bool public isStopped = false;\r\n\r\n  // mapping of courseHash to Course data\r\n  mapping(bytes32 => Course) private ownedCourses;\r\n\r\n  // mapping of courseID to courseHash\r\n  mapping(uint => bytes32) private ownedCourseHash;\r\n\r\n  // number of all courses + id of the course\r\n  uint private totalOwnedCourses;\r\n\r\n  address payable private owner;\r\n\r\n  constructor() {\r\n    setContractOwner(msg.sender);\r\n  }\r\n\r\n  /// Sender is not course owner!\r\n  error SenderIsNotCourseOwner();\r\n\r\n  /// Course is not created\r\n  error CourseIsNotCreated();\r\n\r\n  /// Course has invalid State\r\n  error InvalidState();\r\n\r\n  /// Course has already a Owner!\r\n  error CourseHasOwner();\r\n\r\n  /// Only owner has an access!\r\n  error OnlyOwner();\r\n\r\n  modifier onlyOwner() {\r\n      if (msg.sender != getContractOwner()) {\r\n          revert OnlyOwner();\r\n      }\r\n      _;\r\n  }\r\n\r\n  modifier onlyWhenNotStopped() {\r\n    require(!isStopped);\r\n    _;\r\n  }\r\n\r\n  modifier onlyWhenStopped() {\r\n    require(isStopped);\r\n    _;\r\n  }\r\n\r\n  receive() external payable {}\r\n\r\n  function withdraw(uint amount) external onlyOwner{\r\n    (bool success, ) = owner.call{value: amount}(\"\");\r\n    require(success, \"Transfer faild\");\r\n  }\r\n\r\n  function emergencyWithdraw() external onlyWhenStopped onlyOwner{\r\n    (bool success, ) = owner.call{value: address(this).balance}(\"\");\r\n    require(success, \"Transfer faild\");\r\n  }\r\n\r\n  function selfDestruct() external onlyWhenStopped onlyOwner{\r\n    selfdestruct(owner);\r\n  }\r\n\r\n  function stopContract() external onlyOwner {\r\n    isStopped = true;\r\n  }\r\n\r\n  function resumeContract() external onlyOwner {\r\n    isStopped = false;\r\n  }\r\n\r\n  function purchaseCourse(\r\n    bytes16 courseId, // 0x00000000000000000000000000003130\r\n    bytes32 proof // 0x0000000000000000000000000000313000000000000000000000000000003130\r\n  )\r\n    external\r\n    payable\r\n  {\r\n    bytes32 courseHash = keccak256(abi.encodePacked(courseId, msg.sender));\r\n\r\n    if (hasCourseOwnership(courseHash)) {\r\n      revert CourseHasOwner();\r\n    }\r\n\r\n    uint id = totalOwnedCourses++;\r\n\r\n    ownedCourseHash[id] = courseHash;\r\n    ownedCourses[courseHash] = Course({\r\n      id: id,\r\n      price: msg.value,\r\n      proof: proof,\r\n      owner: msg.sender,\r\n      state: State.Purchased\r\n    });\r\n  }\r\n\r\n  function repurchaseCourse(bytes32 courseHash) external payable {\r\n    if (!isCourseCreated(courseHash)) {\r\n      revert CourseIsNotCreated();\r\n    }\r\n\r\n    if (!hasCourseOwnership(courseHash)) {\r\n      revert SenderIsNotCourseOwner();\r\n    }\r\n\r\n    Course storage course = ownedCourses[courseHash];\r\n\r\n    if (course.state != State.Deactivated) {\r\n      revert InvalidState();\r\n    }\r\n\r\n    course.state = State.Purchased;\r\n    course.price = msg.value;\r\n  }\r\n\r\n\r\n  function activateCourse( bytes32 courseHash) external onlyOwner {\r\n    if(!isCourseCreated(courseHash)) {revert CourseIsNotCreated();}\r\n    Course storage course = ownedCourses[courseHash];\r\n\r\n    if(!isCourseCreated(courseHash)) {revert InvalidState();}\r\n    course.state = State.Activated;\r\n  }\r\n\r\n  function deactivateCourse(bytes32 courseHash) external onlyOwner {\r\n    if (!isCourseCreated(courseHash)) {revert CourseIsNotCreated();}\r\n    Course storage course = ownedCourses[courseHash];\r\n\r\n    if (course.state != State.Purchased) {revert InvalidState();}\r\n    (bool success, ) = course.owner.call{value: course.price}(\"\");\r\n    require(success, \"Transfer failed!\");\r\n\r\n    course.state = State.Deactivated;\r\n    course.price = 0;\r\n  }\r\n\r\n\r\n  function transferOwnership(address newOwner) external onlyOwner {\r\n      setContractOwner(newOwner);\r\n  } \r\n\r\n  function getCourseCount()\r\n    external\r\n    view\r\n    returns (uint)\r\n  {\r\n    return totalOwnedCourses;\r\n  }\r\n\r\n  function getCourseHashAtIndex(uint index)\r\n    external\r\n    view\r\n    returns (bytes32)\r\n  {\r\n    return ownedCourseHash[index];\r\n  }\r\n\r\n  function getCourseByHash(bytes32 courseHash)\r\n    external\r\n    view\r\n    returns (Course memory)\r\n  {\r\n    return ownedCourses[courseHash];\r\n  }\r\n\r\n  function getContractOwner() public view returns(address) {\r\n      return owner;\r\n  }\r\n\r\n  function setContractOwner(address newOwner) private {\r\n    owner = payable(newOwner);\r\n  }\r\n\r\n  function isCourseCreated(bytes32 courseHash) private view returns (bool) {\r\n    return ownedCourses[courseHash].owner != 0x0000000000000000000000000000000000000000;\r\n  }\r\n\r\n  function hasCourseOwnership(bytes32 courseHash)\r\n    private\r\n    view\r\n    returns (bool)\r\n  {\r\n    return ownedCourses[courseHash].owner == msg.sender;\r\n  }\r\n}",
  "sourcePath": "C:\\Users\\spath\\Desktop\\marketplace-eth\\contracts\\CourseMarketplace.sol",
  "compiler": {
    "name": "solc",
    "version": "0.8.4+commit.c7e474f2.Emscripten.clang"
  },
  "schemaVersion": "3.4.4",
  "updatedAt": "2022-05-25T10:55:58.145Z",
  "networkType": "ethereum",
  "devdoc": {
    "kind": "dev",
    "methods": {},
    "version": 1
  },
  "userdoc": {
    "errors": {
      "CourseHasOwner()": [
        {
          "notice": "Course has already a Owner!"
        }
      ],
      "CourseIsNotCreated()": [
        {
          "notice": "Course is not created"
        }
      ],
      "InvalidState()": [
        {
          "notice": "Course has invalid State"
        }
      ],
      "OnlyOwner()": [
        {
          "notice": "Only owner has an access!"
        }
      ],
      "SenderIsNotCourseOwner()": [
        {
          "notice": "Sender is not course owner!"
        }
      ]
    },
    "kind": "user",
    "methods": {},
    "version": 1
  }
}